:060000000A128A1100291A
:10000800F000030EF1000B190E210C1815218C18A5
:0C0018001E21710E8300F00E700E090016
:100200007E216A2171213F214C215C21031383123D
:10021000A0012008850022212A2109290313831225
:10022000FE3081000B113121080003138312C2300C
:100230008F00F7308E000C10A00A08008C100130DF
:10024000890608000F302005A100F0302005A2002B
:10025000A20E080021080022A40022080022A50006
:1002600008000810881023183A29240887008814E9
:10027000231408002508870008142310080003131E
:100280008316811281110115811401100313831249
:10029000FE3081000B11080003138312901090119F
:1002A000901610161013101403138312C2308F000F
:1002B000F7308E000C1008000313831292141214EE
:1002C0001217921612169215121503138316F43094
:1002D00092000800031383160F140F168F160F13C6
:1002E0000800031383168B160C148C14031383124B
:1002F0000B178B170B110C108C10080003178316AB
:10030000880189010313831685018701081088106D
:1003100009100313831285018701880189010800F0
:100400008A018A140F3982073F3406345B344F3433
:1004100066346D347D3407347F346F3477347C3404
:0804200039345E347934713483
:04400E00D420FF3F7C
:00000001FF
